{
  "contractName": "ZKPElections",
  "abi": [
    {
      "constant": true,
      "inputs": [
        {
          "internalType": "uint256",
          "name": "",
          "type": "uint256"
        }
      ],
      "name": "elections",
      "outputs": [
        {
          "internalType": "uint256",
          "name": "name",
          "type": "uint256"
        },
        {
          "internalType": "address",
          "name": "owner",
          "type": "address"
        },
        {
          "internalType": "bool",
          "name": "isClosed",
          "type": "bool"
        },
        {
          "internalType": "uint256",
          "name": "candidateCount",
          "type": "uint256"
        },
        {
          "internalType": "uint256",
          "name": "voterCount",
          "type": "uint256"
        }
      ],
      "payable": false,
      "stateMutability": "view",
      "type": "function"
    },
    {
      "constant": true,
      "inputs": [],
      "name": "electionCount",
      "outputs": [
        {
          "internalType": "uint256",
          "name": "",
          "type": "uint256"
        }
      ],
      "payable": false,
      "stateMutability": "view",
      "type": "function"
    },
    {
      "constant": true,
      "inputs": [],
      "name": "contractOwner",
      "outputs": [
        {
          "internalType": "address",
          "name": "",
          "type": "address"
        }
      ],
      "payable": false,
      "stateMutability": "view",
      "type": "function"
    },
    {
      "inputs": [],
      "payable": false,
      "stateMutability": "nonpayable",
      "type": "constructor"
    },
    {
      "anonymous": false,
      "inputs": [
        {
          "indexed": false,
          "internalType": "uint256",
          "name": "name",
          "type": "uint256"
        },
        {
          "indexed": false,
          "internalType": "uint256",
          "name": "_electionKey",
          "type": "uint256"
        }
      ],
      "name": "ElectionAdded",
      "type": "event"
    },
    {
      "anonymous": false,
      "inputs": [
        {
          "indexed": false,
          "internalType": "uint256",
          "name": "_electionKey",
          "type": "uint256"
        }
      ],
      "name": "ElectionClosed",
      "type": "event"
    },
    {
      "anonymous": false,
      "inputs": [
        {
          "indexed": false,
          "internalType": "uint256",
          "name": "_electionKey",
          "type": "uint256"
        },
        {
          "indexed": false,
          "internalType": "uint256",
          "name": "_candidateKey",
          "type": "uint256"
        }
      ],
      "name": "VoteCast",
      "type": "event"
    },
    {
      "constant": true,
      "inputs": [],
      "name": "getContractOwner",
      "outputs": [
        {
          "internalType": "address",
          "name": "",
          "type": "address"
        }
      ],
      "payable": false,
      "stateMutability": "view",
      "type": "function"
    },
    {
      "constant": false,
      "inputs": [],
      "name": "withdrawAllFunds",
      "outputs": [],
      "payable": false,
      "stateMutability": "nonpayable",
      "type": "function"
    },
    {
      "constant": false,
      "inputs": [
        {
          "internalType": "uint256",
          "name": "_name",
          "type": "uint256"
        },
        {
          "internalType": "uint256[]",
          "name": "_candidates",
          "type": "uint256[]"
        },
        {
          "internalType": "address[]",
          "name": "_voterAddresses",
          "type": "address[]"
        }
      ],
      "name": "addElection",
      "outputs": [],
      "payable": true,
      "stateMutability": "payable",
      "type": "function"
    },
    {
      "constant": true,
      "inputs": [],
      "name": "getNextElectionKey",
      "outputs": [
        {
          "internalType": "uint256",
          "name": "",
          "type": "uint256"
        }
      ],
      "payable": false,
      "stateMutability": "view",
      "type": "function"
    },
    {
      "constant": true,
      "inputs": [
        {
          "internalType": "uint256",
          "name": "_electionKey",
          "type": "uint256"
        }
      ],
      "name": "getElection",
      "outputs": [
        {
          "internalType": "uint256",
          "name": "",
          "type": "uint256"
        },
        {
          "internalType": "uint256[]",
          "name": "",
          "type": "uint256[]"
        },
        {
          "internalType": "uint256[]",
          "name": "",
          "type": "uint256[]"
        },
        {
          "internalType": "uint256",
          "name": "",
          "type": "uint256"
        },
        {
          "internalType": "bool",
          "name": "",
          "type": "bool"
        }
      ],
      "payable": false,
      "stateMutability": "view",
      "type": "function"
    },
    {
      "constant": true,
      "inputs": [],
      "name": "getElectionKeysForOwner",
      "outputs": [
        {
          "internalType": "uint256[]",
          "name": "",
          "type": "uint256[]"
        }
      ],
      "payable": false,
      "stateMutability": "view",
      "type": "function"
    },
    {
      "constant": true,
      "inputs": [
        {
          "internalType": "uint256",
          "name": "_electionKey",
          "type": "uint256"
        }
      ],
      "name": "getVoterStatus",
      "outputs": [
        {
          "internalType": "uint8",
          "name": "",
          "type": "uint8"
        }
      ],
      "payable": false,
      "stateMutability": "view",
      "type": "function"
    },
    {
      "constant": false,
      "inputs": [
        {
          "internalType": "uint256",
          "name": "_electionKey",
          "type": "uint256"
        },
        {
          "internalType": "uint256",
          "name": "_candidateKey",
          "type": "uint256"
        }
      ],
      "name": "castVote",
      "outputs": [],
      "payable": false,
      "stateMutability": "nonpayable",
      "type": "function"
    },
    {
      "constant": false,
      "inputs": [
        {
          "internalType": "uint256",
          "name": "_electionKey",
          "type": "uint256"
        }
      ],
      "name": "closeElectionPrematurely",
      "outputs": [],
      "payable": false,
      "stateMutability": "nonpayable",
      "type": "function"
    }
  ],
  "bytecode": "0x608060405234801561001057600080fd5b50336000806101000a81548173ffffffffffffffffffffffffffffffffffffffff021916908373ffffffffffffffffffffffffffffffffffffffff160217905550610f0b806100606000396000f3fe6080604052600436106100a75760003560e01c80635e6fef01116100645780635e6fef011461024b5780637bca3f8c146102e6578063997d2830146103215780639d7107771461034c578063c5d210901461043d578063ce606ee014610515576100a7565b806313a3deac146100ac5780632c0a3f89146101015780632ee73a9b14610146578063422ec53214610171578063442890d5146101dd57806349649fbf14610234575b600080fd5b3480156100b857600080fd5b506100e5600480360360208110156100cf57600080fd5b810190808035906020019092919050505061056c565b604051808260ff1660ff16815260200191505060405180910390f35b34801561010d57600080fd5b506101446004803603604081101561012457600080fd5b8101908080359060200190929190803590602001909291905050506105e5565b005b34801561015257600080fd5b5061015b6107fc565b6040518082815260200191505060405180910390f35b34801561017d57600080fd5b50610186610809565b6040518080602001828103825283818151815260200191508051906020019060200280838360005b838110156101c95780820151818401526020810190506101ae565b505050509050019250505060405180910390f35b3480156101e957600080fd5b506101f26108ed565b604051808273ffffffffffffffffffffffffffffffffffffffff1673ffffffffffffffffffffffffffffffffffffffff16815260200191505060405180910390f35b34801561024057600080fd5b50610249610916565b005b34801561025757600080fd5b506102846004803603602081101561026e57600080fd5b81019080803590602001909291905050506109cf565b604051808681526020018573ffffffffffffffffffffffffffffffffffffffff1673ffffffffffffffffffffffffffffffffffffffff168152602001841515151581526020018381526020018281526020019550505050505060405180910390f35b3480156102f257600080fd5b5061031f6004803603602081101561030957600080fd5b8101908080359060200190929190505050610a32565b005b34801561032d57600080fd5b50610336610b28565b6040518082815260200191505060405180910390f35b34801561035857600080fd5b506103856004803603602081101561036f57600080fd5b8101908080359060200190929190505050610b2e565b60405180868152602001806020018060200185815260200184151515158152602001838103835287818151815260200191508051906020019060200280838360005b838110156103e25780820151818401526020810190506103c7565b50505050905001838103825286818151815260200191508051906020019060200280838360005b83811015610424578082015181840152602081019050610409565b5050505090500197505050505050505060405180910390f35b6105136004803603606081101561045357600080fd5b81019080803590602001909291908035906020019064010000000081111561047a57600080fd5b82018360208201111561048c57600080fd5b803590602001918460208302840111640100000000831117156104ae57600080fd5b9091929391929390803590602001906401000000008111156104cf57600080fd5b8201836020820111156104e157600080fd5b8035906020019184602083028401116401000000008311171561050357600080fd5b9091929391929390505050610c86565b005b34801561052157600080fd5b5061052a610eb1565b604051808273ffffffffffffffffffffffffffffffffffffffff1673ffffffffffffffffffffffffffffffffffffffff16815260200191505060405180910390f35b600060025482111561057d57600080fd5b6001600083815260200190815260200160002060040160003373ffffffffffffffffffffffffffffffffffffffff1673ffffffffffffffffffffffffffffffffffffffff16815260200190815260200160002060009054906101000a900460ff169050919050565b6002548211156105f457600080fd5b60006001600084815260200190815260200160002090508060010160149054906101000a900460ff161561062757600080fd5b60018160040160003373ffffffffffffffffffffffffffffffffffffffff1673ffffffffffffffffffffffffffffffffffffffff16815260200190815260200160002060009054906101000a900460ff1660ff161461068557600080fd5b806003015482111561069657600080fd5b60018160020160008481526020019081526020016000206001016000828254019250508190555060028160040160003373ffffffffffffffffffffffffffffffffffffffff1673ffffffffffffffffffffffffffffffffffffffff16815260200190815260200160002060006101000a81548160ff021916908360ff1602179055507fc31875ef3ed5138b71a0c1da7e494bc4d2ba4f567084ea481ec9c45f3a93948b8383604051808381526020018281526020019250505060405180910390a1600080600190505b82600301548111610794578260020160008281526020019081526020016000206001015482019150808060010191505061075f565b5081600501548114156107f65760018260010160146101000a81548160ff0219169083151502179055507f393c4b8e62f1195313cf17dcf00793c668ddfc35881cd8015559c074f6d61e83846040518082815260200191505060405180910390a15b50505050565b6000600160025401905090565b60608060025460405190808252806020026020018201604052801561083d5781602001602082028038833980820191505090505b5090506000600190505b60025481116108e5573373ffffffffffffffffffffffffffffffffffffffff166001600083815260200190815260200160002060010160009054906101000a900473ffffffffffffffffffffffffffffffffffffffff1673ffffffffffffffffffffffffffffffffffffffff1614156108d85760018260018303815181106108cb57fe5b6020026020010181815250505b8080600101915050610847565b508091505090565b60008060009054906101000a900473ffffffffffffffffffffffffffffffffffffffff16905090565b6000809054906101000a900473ffffffffffffffffffffffffffffffffffffffff1673ffffffffffffffffffffffffffffffffffffffff163373ffffffffffffffffffffffffffffffffffffffff161461096f57600080fd5b3373ffffffffffffffffffffffffffffffffffffffff166108fc3073ffffffffffffffffffffffffffffffffffffffff16319081150290604051600060405180830381858888f193505050501580156109cc573d6000803e3d6000fd5b50565b60016020528060005260406000206000915090508060000154908060010160009054906101000a900473ffffffffffffffffffffffffffffffffffffffff16908060010160149054906101000a900460ff16908060030154908060050154905085565b600254811115610a4157600080fd5b60006001600083815260200190815260200160002090503373ffffffffffffffffffffffffffffffffffffffff168160010160009054906101000a900473ffffffffffffffffffffffffffffffffffffffff1673ffffffffffffffffffffffffffffffffffffffff1614610ab457600080fd5b8060010160149054906101000a900460ff1615610ad057600080fd5b60018160010160146101000a81548160ff0219169083151502179055507f393c4b8e62f1195313cf17dcf00793c668ddfc35881cd8015559c074f6d61e83826040518082815260200191505060405180910390a15050565b60025481565b6000606080600080600254861115610b4557600080fd5b6000600160008881526020019081526020016000209050600081600301549050606081604051908082528060200260200182016040528015610b965781602001602082028038833980820191505090505b509050606082604051908082528060200260200182016040528015610bca5781602001602082028038833980820191505090505b5090506000600190505b838111610c505784600201600082815260200190815260200160002060000154836001830381518110610c0357fe5b60200260200101818152505084600201600082815260200190815260200160002060010154826001830381518110610c3757fe5b6020026020010181815250508080600101915050610bd4565b508360000154828286600501548760010160149054906101000a900460ff16985098509850985098505050505091939590929450565b6001848490501015610c9757600080fd5b6001828290501015610ca857600080fd5b600160026000828254019250508190555060006001600060025481526020019081526020016000209050858160000181905550338160010160006101000a81548173ffffffffffffffffffffffffffffffffffffffff021916908373ffffffffffffffffffffffffffffffffffffffff16021790555060008160010160146101000a81548160ff0219169083151502179055508484905081600301819055508282905081600501819055506000600190505b858590508111610e67576000600190505b868690508111610db457868660018303818110610d8457fe5b90506020020135836002016000838152602001908152602001600020600001819055508080600101915050610d6b565b506000600190505b848490508111610e59576001836004016000878760018603818110610ddd57fe5b9050602002013573ffffffffffffffffffffffffffffffffffffffff1673ffffffffffffffffffffffffffffffffffffffff1673ffffffffffffffffffffffffffffffffffffffff16815260200190815260200160002060006101000a81548160ff021916908360ff1602179055508080600101915050610dbc565b508080600101915050610d5a565b507f4e0017fb3de251e0d35bf2bc876a9f37d27b811919e139600d2ba2725ae6e04f86600254604051808381526020018281526020019250505060405180910390a1505050505050565b6000809054906101000a900473ffffffffffffffffffffffffffffffffffffffff168156fea265627a7a723158203d2530bfd2d980c528211aa73fe41072b86c570beaa7359788128f9bb2d863f764736f6c634300050b0032",
  "source": "pragma solidity ^0.5.11;\n\ncontract ZKPElections {\n\n  address public contractOwner;\n\n  struct Candidate {\n    uint name;\n    uint voteCount;\n  }\n \n  struct Election {\n    uint name;\n    address owner;\n    bool isClosed;\n        \n    mapping (uint => Candidate) candidates;\n    uint candidateCount;\n\n    // 0: NoStatus 1: AwaitingVote 2: VoteCast\n    mapping (address => uint8) voterToStatus;\n    uint voterCount;\n  }\n \n  mapping (uint => Election) public elections;\n  uint public electionCount;\n\n  event ElectionAdded(uint name, uint _electionKey);\n  event ElectionClosed(uint _electionKey);\n  event VoteCast(uint _electionKey, uint _candidateKey);\n\n  constructor () public {\n    contractOwner = msg.sender;\n  }\n\n  function getContractOwner() external view returns (address) {\n    return contractOwner;\n  }\n  \n  function withdrawAllFunds() external {\n    require(msg.sender == contractOwner);\n    msg.sender.transfer(address(this).balance);\n  }\n  \n  function addElection(uint _name,\n\t\t       uint [] calldata _candidates,\n\t\t       address [] calldata _voterAddresses) external payable {\n        \n    require(_candidates.length >= 1);\n    require(_voterAddresses.length >= 1);\n        \n    electionCount += 1;\n    Election storage election = elections[electionCount];\n\n    election.name = _name;\n    election.owner = msg.sender;\n    election.isClosed = false;\n    election.candidateCount = _candidates.length;\n    election.voterCount = _voterAddresses.length;\n        \n    for (uint i = 1; i <= _candidates.length; i ++ ) {\n      for (uint j = 1; j <= _candidates.length; j ++) {\n\telection.candidates[j].name = _candidates[j-1];\n      }\n      for (uint j = 1; j <= _voterAddresses.length; j ++) {\n\telection.voterToStatus[_voterAddresses[j-1]] = 1;\n      }           \n    }\n\n    emit ElectionAdded(_name, electionCount);\n  }\n\n  function getNextElectionKey() external view returns (uint) {\n    return electionCount + 1;\n  }\n  \n  function getElection(uint _electionKey)\n    external view returns (uint, uint [] memory, uint [] memory, uint, bool) {\n        \n    require (_electionKey <= electionCount);\n        \n    Election storage election = elections[_electionKey];\n    uint cnt = election.candidateCount;\n    uint [] memory cands = new uint[](cnt);\n    uint [] memory vCnts = new uint[](cnt);\n        \n    for (uint i = 1; i <= cnt; i ++ ) {\n      cands[i-1] = election.candidates[i].name;\n      vCnts[i-1] = election.candidates[i].voteCount;\n    }\n        \n    return (election.name, cands, vCnts, election.voterCount, election.isClosed);\n  }\n\n  function getElectionKeysForOwner()\n    external view returns (uint [] memory) {\n\n    uint [] memory keys = new uint [] (electionCount);\n   \n    for (uint i = 1; i <= electionCount; i ++) {\n      if (elections[i].owner == msg.sender) {\n\tkeys[i-1] = 1;\n      }\n    }\n\n    return keys;\n  }\n \n  function getVoterStatus(uint _electionKey)\n    external view returns (uint8) {\n\n    require(_electionKey <= electionCount);\n    return elections[_electionKey].voterToStatus[msg.sender];\n  }\n\n\n  function castVote(uint _electionKey, uint _candidateKey) external {\n    require(_electionKey <= electionCount);\n        \n    Election storage election = elections[_electionKey];\n    require(!election.isClosed);\n    require(election.voterToStatus[msg.sender] == 1);\n    require(_candidateKey <= election.candidateCount);\n        \n    election.candidates[_candidateKey].voteCount += 1;\n    election.voterToStatus[msg.sender] = 2;\n\n    emit VoteCast(_electionKey, _candidateKey);\n\n    // Last vote closes election\n    uint votesCast;\n    for (uint i = 1; i <= election.candidateCount; i ++ ) {\n      votesCast += election.candidates[i].voteCount;\n    }\n    if (votesCast == election.voterCount) {\n      election.isClosed = true;\n      emit ElectionClosed(_electionKey);\n    }\n  }\n    \n  function closeElectionPrematurely(uint _electionKey) external {\n\n    // Premature election closing only by owner\n    require (_electionKey <= electionCount);\n    Election storage election = elections[_electionKey];\n    require (election.owner == msg.sender);\n    require(!election.isClosed);\n    election.isClosed = true;\n        \n    emit ElectionClosed(_electionKey);\n  }\n}\n",
  "sourcePath": "/ntfs/projects/ethereum-anonymous-voting/contracts/ZKPElections.sol",
  "compiler": {
    "name": "solc",
    "version": "0.5.11+commit.c082d0b4.Emscripten.clang"
  },
  "schemaVersion": "3.0.13",
  "updatedAt": "2019-09-20T14:32:02.657Z",
  "devdoc": {
    "methods": {}
  },
  "userdoc": {
    "methods": {}
  }
}